
:10000000080A08080004000504090306060208059A
:100010000208020E01040C0303020501000C0C0D82
:100020000C090C0C02080001070008000C05090A65
:10003000050802020C020802040302020402080579
:1000400009000E04030B020201060701050D01045D
:100050000201070A0807060901080F000A050A033A
:1000600002050F0000040904040106040906020B3E
:10007000010E0F010E01090306060808020805011A
:1000800008020208000F020002040B0A0E0407080F
:1000900006060606060204040B020204060801090D
:1000A0000809010803020102040204020802060210
:1000B00004020E0808010804080601080E080808D2
:1000C0000208010B000C0C04040601040C020104DC
:1000D00008070F08090802030F08010D0D0B020D98
:1000E0000C0D020107000E050702090F0E020404A1
:1000F0000101040101010F090C0C010F02000E089F
:1001000001010304010C01020901030F0103050EA3
:1001100009050804050305020D0503050C05030583
:1001200003010C04050C0A090E080F080B020E0847
:1001300008070F0801010405020C05030800000E62
:10014000020B0406090E090B070F0406050D0B0F21
:1001500003090802070A0107030002040609010D4A
:10016000080A0C0D000E0D000A0007050B0C010B10
:100170000309020201030604000D0800090C0F0226
:10018000080801050702070C0F020404010E0D0107
:1001900003040F0205070002010E0E0808070F08EE
:1001A00001010405020C05030A00000E000A040602
:1001B000090E090D070F0406050D0B0F03080802B1
:1001C000060A0102030002040E09010F080A0C0BC3
:1001D0000E0E0D000A0907050B0C010D04010702A4
:1001E0000101060B01040208010802000D000000D5
:1001F0000000010E0000090608020C02010E0402B4
:00000001FF
