
:100000000505000408040A020003000100060902B5
:1000100001040100060100030600040204000505B6
:1000200001020106000600060204060F000F050586
:100030000405010600030200060104010400090290
:10004000030800070303000802050802050802056B
:100050000902050F0F0F0F0F060500090F02090116
:100060000B0605010201060100020D03040E000942
:10007000020D0A020D010D030E0101020009020822
:1000800004010606020C000806060308000101052B
:100090000100010001040400050B0106000902072C
:1000A00004010607000B040B07010601020001040E
:1000B0000007000701030B07050F020501000203FB
:1000C0000009020008000C060600070C0300070CDC
:1000D00007060D05040602010D07000D0C0C0205B4
:1000E0000E0C0007070800070E01040D00060606A7
:1000F000010E00010E070D040F03020D03030001A2
:1001000008010208010202090802020801020107AF
:100110000B01080C010202090C010201020102019B
:100120000202020D0102040102010B010902000793
:10013000040B0F080D0B0B0B0B0E0B0B0B0A080A15
:100140000B0B0F0E0E0E080F0F0E0B0F0F0E090AE2
:100150000F0B0E0E0B0E0E0A0E0F0F0E0B0F0F0ACB
:100160000F080D0B0E0A08080F0B0E0E0E0A0B0DD2
:100170000C0B0C0D0C0B0B0C0B080B0D050D0C00D8
:10018000020207080900010E0C000505070E040114
:1001900001010C000709000007020004070B0F080B
:1001A0000D0B0B0B0B0C0A0A0A0A080A0C0B0D0CA0
:1001B0000C0C080F0D0C0A0D0D0C090B0D0A0C0C84
:1001C0000A0C0C0A0C0D0D0C0D0D0D0D0D080F0A6F
:1001D0000F0B08080D0A0C0C0C0B0A0D01070E0082
:1001E0000E020E0F020F0107060F020405000404A1
:1001F0000404050F0404050E05000804020E0001A6
:00000001FF
