
:100000000C08020A060608090C0206000C0402028B
:10001000060D00040002080A0C0A0B080C02050475
:100020000106040C050C08020804010A0E0805006C
:100030000801060D0D0404090003020D0E04090257
:100040000D0C0809090102030004020A04020B0056
:100050000E0204010808090B0D0408090C0C040920
:10006000050C0D0C0D010409050D0D040802040218
:10007000000104060A00080601020C020200010346
:100080000D07090808080206080608050E080204FC
:10009000000C0D0D060D0C020402040606020406F7
:1000A0000C060A0209040905050F020208010802EC
:1000B000020B010001020D070803030008040005FC
:1000C0000F0509050E050B050C050205030F050BB1
:1000D000050D0E0502050C050605040C05020504B8
:1000E0000A0106090C0C080201050E0404010B04A8
:1000F00009020507020200000408010009080C01BA
:100100000D0F050D0C0101050E0502050F0E0D0169
:100110000506010C0E0D040102080D08050E05046C
:10012000050E050105090C0507070C04080B0F084F
:100130000808030E0A070C02020008040000000170
:100140000B0F090C0604010908090E02040207033B
:10015000060D0B0E080A0C0208080F0C0806070112
:100160000A0808080D0B0D0C0204020C0400040A16
:100170000208050508020C030C090E0D000C0C0CFE
:10018000030C0C0C090C0C02040100070D080604FA
:100190000E0E02040A0C040E0402090A0D040C08D7
:1001A00006080106090F0607010C060C02080500E7
:1001B0000F000A030C0A020C0804060606060204D5
:1001C000030D0A02080102040E0600020C080604D0
:1001D000090E080E010700000000000007070400D8
:1001E0000A0C030F04090C02040306090008080C9A
:1001F0000801050F0806080A0804030D0C040F097E
:00000001FF
