
:10000000000206030001030400000103030F0400C3
:1000100001030504080603030003030508000F009D
:10002000020606010202030001060205000706049B
:100030000502030403030002040902050F0601047C
:100040000508020104090201040601010601010478
:100050000800040205000206050100020200060471
:10006000090404020506030409050600010604004C
:100070000D0108010402010604080003000A020938
:10008000050B030700020001010009020804010436
:10009000080008050B040200070106000104040023
:1000A000000F0106060A040E020A03000D010B03ED
:1000B00000090808010B050B09060B0803050E01D2
:1000C00007010F010E01020102010301030D010EE0
:1000D000010E0C0108010C010A010E0C010B0103B9
:1000E0000D010905010001000A020F0607020B05B8
:1000F000040C0203030004040509020305050901B9
:100100000F080107080105010901080102000801A3
:100110000B0F010800070103030D05050108010489
:10012000010D010B01070701020108030203070289
:1001300002010F08040108030008020404040D0270
:10014000070C05080007020E060404000701090653
:10015000070405060103040100020F000100090263
:100160000A0002010406040F000701000608040645
:10017000000902070401060309030F06080004042E
:100180000108040401080600070208090505000625
:10019000010600000100040604000309050800022E
:1001A000000C0202050C0009010801060009020802
:1001B0000F08040108080600010600010001040000
:1001C0000300030003020D04060402010002000103
:1001D0000503030D020C040404040404010C0008CC
:1001E00006060307000408000701080608040002C9
:1001F0000E030F0F060006010404010000060F05A0
:00000001FF
